:020000040800F2
:10000000B8040020C50000081D0D00080F0C0008F2
:1000100000000000000000000000000000000000E0
:10002000000000000000000000000000F30D0008C8
:100030000000000000000000F10D0008F50D0008B0
:10004000D700000800000000D7000008D700000813
:10005000D7000008D7000008D7000008D700000824
:1000600000000000D7000008D7000008D7000008F3
:10007000D7000008A50E0008D70000080000000007
:10008000D70000080000000000000000D7000008B2
:1000900000000000D7000008D7000008D7000008C3
:1000A00000000000D700000800000000D700000892
:1000B0000348854600F03CF800480047B90F0008A7
:1000C000B80400200448804704480047FEE7FEE7E4
:1000D000FEE7FEE7FEE7FEE7490E0008B100000874
:1000E00030B50B46014600202022012409E00D46D0
:1000F000D5409D4205D31D469540491B2546954058
:1001000040191546521E002DF1DC30BDD2B201E07F
:100110000270401C491EFBD270470022F6E710B562
:1001200013460A4604461946FFF7F0FF204610BD65
:10013000064C0125064E05E0E36807CC2B430C3C3A
:1001400098471034B442F7D3FFF7B6FF6C1000089D
:100150008C10000831B500F0B5F8009C0546601C15
:1001600000D0641C00F0AEF8401BA042FAD338BDAA
:10017000F8B500238DE001249C40A44622407DD0A8
:100180004C68022C01D0122C0CD1DC08A4002718DA
:100190003C6A5D07ED0E0F26AE40B4430E69AE40DB
:1001A00026433E6205685E000324B4400F79A543F0
:1001B000BF07BF0FB7402F4307604D68012D05D023
:1001C000022D03D0112D01D0122D0ED18568CF68DC
:1001D000A543B7402F43876047686546AF430D7915
:1001E000ED06ED0F9D403D434560C568A5438C6815
:1001F000B4402C43C4604C68E40049D5284CA56940
:1002000001263543A561A4699D0834400094254C1E
:10021000AD002F19BC689D072E0F0F25B540AC43CC
:100220000925ED06A84201D100250FE01E4DA84288
:1002300001D101250AE01D4DA84201D1022505E0AA
:100240001B4DA84201D1032500E00525B5402543FB
:10025000BD60184C25684E689543F60300D51543DC
:10026000256065684E689543B60300D51543656003
:10027000A5684E689543F60202D500E008E01543F4
:10028000A560E5684E689543B60200D51543E56064
:100290005B1C0A681446DC4000D06CE7F8BD000027
:1002A000001002400000014000040048000800481F
:1002B000000C004800040140002A01D08161704711
:1002C0008162704701480068704700006C000020A0
:1002D00002480168491C0160704700006C00002062
:1002E00010B506480168102211430160002000F09B
:1002F00007F800F017F8002010BD000000200240B1
:1003000010B5044600F0C6F87D21C900FFF7E8FEED
:1003100000F0ACFA00222146501E00F021F8002027
:1003200010BD000008B508488169012211438161B0
:10033000816911400091C26901040A43C261C06928
:100340000840009008BD000000100240C106C90E20
:1003500001208840014908607047000000E100E08A
:1003600010B500F0DDFC10BDF8B5054644480E465A
:100370000068C007C00FB0420AD24148016849086E
:100380004900314301600068C007C00FB0425CD132
:1003900028783C4C800705D56068F0218843A9681F
:1003A000084360602878C0073FD06868012813D0F0
:1003B0002168022813D08907002946DA6168890874
:1003C000890001436160FFF77DFF696807460129E5
:1003D0000DD0022917D024E021688903ECE78901B8
:1003E000EAE7FFF76FFFC11B2748814217D8606813
:1003F0000007800F0128F4D117E0FFF763FFC11B4E
:10040000214881420BD860680007800F0228F4D190
:100410000BE0FFF757FFC11B1B48814201D90320A6
:10042000F8BD60680007800FF3D115480168C9075F
:10043000C90FB1420BD90168490849003143016035
:100440000068C007C00FB04201D00120F8BD287875
:10045000400706D56068072109028843E968084318
:10046000606000F01DF86168084A0906090F515CD8
:10047000C840074908600020FFF742FF0020F8BD90
:100480000020024000100240881300005C100008A9
:1004900070000020014800687047000070000020D4
:1004A00010B512A30FCB88B06C460FC413A30FCBAB
:1004B0000FC416494A680C20134603401448042B05
:1004C0000FD0082B0DD193021B0F6C46E45CC96A58
:1004D00004AB0907090F595CD20304D5FFF700FEEE
:1004E000604308B010BD0B486043FAE702030405FF
:1004F000060708090A0B0C0D0E0F10100102030469
:1005000005060708090A0B0C0D0E0F10001002401B
:1005100000127A0000093D00FEB504460078D04D77
:10052000C00747D068680007800F012807D06868B7
:100530000007800F022809D16868C00306D5286823
:10054000800337D5606800287ED033E001206268E0
:100550000004012A11D08100002A01D0052A10D000
:100560002A6882432A6028688843286060680028D7
:1005700014D0FFF7A7FE06460CE029680143296066
:10058000F4E72A680A432A60F7E7FFF79BFE801B1F
:1005900064286FD828688003F7D50BE0FFF792FE38
:1005A000064604E0FFF78EFE801B6428F1D8286819
:1005B0008003F7D420780126800700283BDA68689A
:1005C0000007800F07D068680007800F022809D154
:1005D0006868C00306D42868800715D5E06801283C
:1005E00032D111E0E0680028286815D03043286037
:1005F000FFF768FE074604E0FFF764FEC01B022811
:10060000C7D828688007F7D52868F821884321696A
:10061000C900084328600EE0400840002860FFF74A
:1006200051FE074604E0FFF74DFEC01B0228B0D87C
:1006300028688007F7D42078000724D5E0690028CF
:10064000686A10D0304300E008E16862FFF73AFEC4
:10065000074604E0FFF736FEC01B022899D8686AF7
:100660008007F7D50FE0400840006862FFF72AFED8
:10067000074605E09DE0FFF725FEC01B022888D84D
:10068000686A8007F7D4207804274007002860DADA
:1006900000200190E869C00008D4E969B806014368
:1006A000E961E96901400120009101906D4801680C
:1006B000C90511D40168821511430160FFF702FEDC
:1006C000009005E0FFF7FEFD0099401A642870D8FD
:1006D00064480068C005F5D5A06801280AD0002844
:1006E00001D0052810D0286A400840002862286AF6
:1006F000B84301E0286A30432862A068002812D07D
:10070000FFF7E0FD00900AE0286A38432862F1E72D
:10071000FFF7D8FD0099411A5348814249D8286A09
:100720008007F5D50DE0FFF7CDFD009006E0FFF75F
:10073000C9FD0099411A4C4881423AD8286A80077D
:10074000F5D40198002804D0E9690120000781430D
:10075000E9612078C00635D5606901280CD0401DBC
:10076000686B23D038436863686B40084000686357
:10077000FFF7A8FD064622E0686B38436863686BA4
:1007800030436863FFF79EFD064604E0FFF79AFDDD
:10079000801B02285BD8686B8007F7D5686BF8214F
:1007A0008843A169C900084368630BE0B8436863E4
:1007B000F4E74CE0FFF786FD801B022847D8686B02
:1007C0008007F7D4206A002846D069680907890F96
:1007D000022943D0012636060228286805D0B043F6
:1007E0002860FFF76FFD044633E0B0432860FFF751
:1007F00069FD074604E0FFF765FDC01B022826D807
:1008000028688001F7D4E86AE16A0009000108431A
:10081000E862616AA06A084369683D221204914354
:1008200008436860286830432860FFF74BFD0446A2
:1008300004E0FFF747FD001B022808D82868800164
:10084000F7D509E0FFF73EFD001B022801D9032080
:10085000FEBD28688001F5D40020FEBD0120FEBD4C
:10086000001002400070004088130000094910B5D4
:10087000401E884201D9012010BD074C6061032150
:10088000081F00F04DFA0020A06107202061002021
:1008900010BD0000FFFFFF0000E000E07047704760
:1008A00070B502462032137F012B1BD00123137732
:1008B00002245477046865687026B543656004684F
:1008C00065680E68354365600468A5688026B54391
:1008D000A5600068846849680C43846053770020F1
:1008E000107770BD022070BD70B5040005D025469C
:1008F0002035687F002802D006E0012070BD00206E
:100900002877204600F00AF802206877211D206829
:1009100000F0D0FA01206877002070BD08B50068AB
:10092000094988420FD109488269C1140A4382618A
:10093000806900220840009011460D20FFF710FD4D
:100940000D20FFF703FD08BD002C01400010024000
:100950000268D36801210B43D360006802680A4330
:10096000026000207047F8B5054604462035287F10
:10097000012817D001272F77022068772268906816
:100980007726FF23B0431B029843906008685028E5
:1009900037D00EDC202857D006DC00284ED0102897
:1009A00040D14EE00220F8BD302850D0402839D147
:1009B0003CE060282DD0702817D001221203801A45
:1009C0000ED090422ED1CB684A688968206800F02A
:1009D000ADFA20688168012292031143816021E011
:1009E00020688168C908C900F8E7CB684A68896847
:1009F000206800F09BFA21688868B0433043886023
:100A000010E0CA684968206800F0A3FA5021206805
:100A100006E0CA684968206800F0ACFA60212068E6
:100A200000F08FFA6F7700202877F8BDCA68496810
:100A3000206800F08EFA40212068F1E7002120684C
:100A4000EEE710212068EBE720212068E8E730215D
:100A50002068E5E7704770B5044600680169002525
:100A6000C9438907002915DBC168C943890711D427
:100A7000E91E0161012020772068806980072046F7
:100A800002D0FFF7E7FF04E000F096F8204600F000
:100A900094F8257720680169C943490717D4C168CC
:100AA000C943490713D40421C943016102202077B7
:100AB000206880698005800F204602D0FFF7CAFFBA
:100AC00004E000F079F8204600F077F825772068F8
:100AD0000169C943090716D4C168C943090712D47B
:100AE0000821C9430161042020772068C06980077C
:100AF000204602D0FFF7AEFF04E000F05DF820468C
:100B000000F05BF8257720680169C943C90617D44E
:100B1000C168C943C90613D41021C9430161082023
:100B200020772068C0698005800F204602D0FFF73B
:100B300091FF04E000F040F8204600F03EF82577F1
:100B400020680169C943C90708D1C168C943C907F9
:100B500004D1891E0161204600F030F82068016947
:100B6000C943090609D4C168C943090605D48021CF
:100B7000C94301612046FFF791FE20680169C9431E
:100B8000490609D4C168C943490605D44021C9436F
:100B90000161204600F03AF820680169C9438906DE
:100BA00009D4C168C943890605D42021C94301611C
:100BB0002046FFF774FE70BD7047704711498842A8
:100BC0000DD11148C188491C89B2C180642906D160
:100BD0000021C1800188002902D0491E0180704790
:100BE0003B2202804188002902D0491E4180704783
:100BF00042808188002902D0491E818070471821D7
:100C0000FBE7000074000020000000207047FEE7B2
:100C1000F0B587B014216846FFF77FFA254842698E
:100C2000012189050A43426142690A4005924269ED
:100C300049110A43426142690A40059242694900EA
:100C40000A43426140691C4F08400590012203217C
:100C50003846FFF731FB092001220F21C006FFF7BC
:100C60002BFB092000221549C006FFF725FB0022B7
:100C700002211348FFF720FB0324012500266846C4
:100C800070C0694638460394FFF772FA0B486A460B
:100C90000F30039461C209206946C006FFF768FA65
:100CA00002206A46039461C269460548FFF760FA6C
:100CB00007B0F0BD0010024000140048F0620000D0
:100CC0000004004810B586B0002400941148019437
:100CD0000294039404940E49059401600E498460C3
:100CE00041600461446164218461C160FFF7FCFDDF
:100CF00001200003009069460648FFF734FE049483
:100D000004A904480594FFF7CBFD06B010BD000010
:100D1000002C014074000020FF110000704700000B
:100D20008307FF22DB0E9A408907090E99400028AD
:100D30000BDA0007000F0838830808489B001818D2
:100D4000C36993430B43C3617047830804489B0006
:100D50001B181868904308431860704700ED00E0C6
:100D600000E400E0F3B5214D00242E4681B00F468B
:100D7000203E1E481030C05DE040C00705D0600036
:100D8000295AA0003058012204E06000295AA0002E
:100D900030580022FFF790FA641C072CE9DB019F12
:100DA00000247F1EA74208D1104861002C38415A08
:100DB000A20018388058002207E00C4861002C3847
:100DC000415AA200183880580122FFF775FA641CB6
:100DD000062CE7DB0198E9890528F06903D0012298
:100DE000FFF76AFAFEBD0022FAE700004C0000207F
:100DF0007047704710B5FFF76BFA10BD30B591B072
:100E000030216846FFF789F900240D9401200390F2
:100E10000E940225102009940490009505200F944B
:100E2000C0040A900C9408950B946846FFF774FB75
:100E300007200C900E9401210D950F940CA8FFF73C
:100E400093FA11B030BD000013480168012211432C
:100E500001604168114A114041600168104A114027
:100E600001600168012292049143016041683F22C0
:100E7000120491434160C16A09090901C162016B11
:100E8000FF22143291430163416B490849004163D9
:100E90000021816070470000001002400CB8FF087C
:100EA000FFFFF6FE10B50248FFF7D5FD10BD0000AC
:100EB0007400002070B50268174B184E984201D09C
:100EC000B04203D17024A2434C682243144C154D08
:100ED000984208D0B04206D0134EB04203D0A04290
:100EE00001D0A84204D103263602B243CE68324371
:100EF0008026B2434E69324302608A68C2620A6841
:100F00008262984203D0A04201D0A84201D109696F
:100F100001630121416170BD002C014000040040CB
:100F200000440140004801400020004030B5846882
:100F3000FF252D021B021343AC430B432343836065
:100F400030BD826870239A430A4307210A438260B6
:100F5000704730B5036A046A6408640004628469F7
:100F6000F025AC43120122430A24A3430B438261C0
:100F7000036230BD30B5036A1024A3430362846961
:100F8000036A0F252D031203AC432243A024A3437D
:100F9000090119438261016230BD02E008C8121FD5
:100FA00008C1002AFAD170477047002001E001C152
:100FB000121F002AFBD170470125FFF791F9FFF7B7
:100FC0001DFFFFF725FEFFF77DFE2248FFF7C0FC5F
:100FD000214C0A21A088FFF783F8C1B20120FFF756
:100FE000C1FE2846FFF7B6F8A0880A21FFF778F877
:100FF0000220FFF7B7FE2846FFF7ACF860880A2109
:10100000FFF76EF8C1B20320FFF7ACFE2846FFF7EA
:10101000A1F860880A21FFF763F80420FFF7A2FE19
:101020002846FFF797F820880A21FFF759F8C1B240
:101030000520FFF797FE2846FFF78CF820880A2145
:10104000FFF74EF80620FFF78DFE2846FFF782F8DF
:10105000BFE7000074000020000000200000000036
:101060000000000001020304060708098C100008B4
:1010700000000020740000009A0F00080011000812
:101080007400002044040000AA0F000800000000C3
:101090000000000000000048000000480000004878
:1010A0000004004800000048000000480040002004
:1010B00000020200800040000014004800140048B4
:1010C0000000004800000048000000480000004800
:1010D000000000480000004801000200010002007A
:1010E00004000800100020003F065B4F666D7D077E
:1010F0007F6F777C395E79710000000000127A0002
:04000005080000B13E
:00000001FF
